:020000040800F2
:10000000E008002089010008CD2400088D220008A6
:10001000C924000831030008292600080000000058
:10002000000000000000000000000000F9240008AB
:100030005D06000800000000D1240008FD2400082F
:10004000A3010008A3010008A3010008A301000800
:10005000A3010008A3010008A3010008A3010008F0
:10006000A3010008A3010008A3010008A3010008E0
:10007000A3010008A3010008A3010008A3010008D0
:10008000A3010008A3010008A3010008A3010008C0
:10009000A3010008A3010008A3010008A3010008B0
:1000A000A3010008A3010008A3010008A3010008A0
:1000B000A301000805250008A3010008A30100080A
:1000C000A3010008A3010008A3010008A301000880
:1000D000A30100081D260008A3010008A3010008D1
:1000E000A3010008A3010008A301000800F002F822
:1000F00000F03AF80AA090E8000C82448344AAF188
:100100000107DA4501D100F02FF8AFF2090EBAE885
:100110000F0013F0010F18BFFB1A43F0010318473B
:10012000EC2700000C280000103A24BF78C878C1E2
:10013000FAD8520724BF30C830C144BF04680C60ED
:10014000704700000023002400250026103A28BF35
:1001500078C1FBD8520728BF30C148BF0B60704739
:100160001FB51FBD10B510BD00F0A8F81146FFF770
:10017000F7FF02F05BFA00F0C6F803B4FFF7F2FFF6
:1001800003BC00F0CDF8000009488047094800474B
:10019000FEE7FEE7FEE7FEE7FEE7FEE7FEE7FEE737
:1001A000FEE7FEE704480549054A064B7047000094
:1001B00001250008ED000008E0020020E008002012
:1001C000E0040020E0040020032A40F2308010F018
:1001D000030C00F0158011F8013BBCF1020F6244E2
:1001E00098BF11F801CB00F8013B38BF11F8013B73
:1001F000A2F1040298BF00F801CB38BF00F8013B20
:1002000011F0030300F02880083AC0F0088051F88C
:10021000043B083A51F804CBA0E80810F5E7121D9A
:100220005CBF51F8043B40F8043BAFF30080D207B9
:1002300024BF11F8013B11F801CB48BF11F8012B85
:1002400024BF00F8013B00F801CB48BF00F8012BA8
:10025000704770477047704710B5203AC0F00B8068
:10026000B1E81850A0E81850B1E81850A0E81850AC
:10027000203ABFF4F5AF5FEA027C24BFB1E8185022
:10028000A0E8185044BF18C918C0BDE810405FEA84
:10029000827C24BF51F8043B40F8043B08BF704700
:1002A000D20728BF31F8023B48BF11F8012B28BF05
:1002B00020F8023B48BF00F8012B7047754600F05C
:1002C0002BF8AE4605006946534620F007008546E8
:1002D00018B020B5FFF766FFBDE820404FF00006DC
:1002E0004FF000074FF000084FF0000BAC46ACE8B1
:1002F000C009ACE8C009ACE8C009ACE8C00921F00D
:1003000007018D46704710B50446AFF300802046C4
:10031000BDE81040FFF731BF0048704710000020D3
:1003200001491820ABBEFEE726000200704700001E
:10033000FEE700002DE9F04F81B040F2E804C2F280
:1003400000046178227801F1FF0AAAEB02018BB266
:1003500048F2810803FB08F3DB0DA3EB0323CE185F
:10036000F1B2042904D2002001B0BDE8F08F00BF33
:1003700040F2EC0EC2F2000E009014E0911CCAB2E2
:10038000B2F1FF0518BF0D46E9B2AAEB01018AB22E
:1003900002FB08F2D20DA2EB02228E18F1B2042960
:1003A0002A462570DFD3D3B2B3F1FF0118BF11463F
:1003B000C9B21EF801105A29E0D1571C5FFA87FC18
:1003C000BCF1FF0518BF3D46E9B21EF80110A52992
:1003D000D4D1941C5FFA84FBBBF1FF0118BF214606
:1003E000C9B21EF801100020012908BF052002290A
:1003F000F1B208BF08208842B5D8012840F28480B5
:10040000B3F1FF0118BF1146C9B2A0F101091EF8EE
:100410000160B9F1010F78D0BCF1FF0118BF394676
:10042000C9B21EF80110B9F1020F0E446DD0BBF134
:10043000FF0118BF2146C9B21EF80110B9F1030F20
:100440000E4462D0D11CCBB2FF3B18BF0B46D9B2D1
:100450001EF80110B9F1040F0E4456D0111DCBB295
:10046000FF3B18BF0B46D9B21EF80110B9F1050FBA
:100470000E444AD0511DCBB2FF3B18BF0B46D9B238
:100480001EF80110B9F1060F0E443ED0911DCBB2FB
:10049000FF3B18BF0B46D9B21EF80110B9F1070F88
:1004A0000E4432D0D11DCBB2FF3B18BF0B46D9B2A0
:1004B00002F10803DFB2FF3F1EF8011018BF1F460C
:1004C000FBB202F109073144FEB2FF3E1EF80330D1
:1004D00018BF3E46F7B21EF80770194402F10A032E
:1004E0003944DFB2FF3F18BF1F4602F10B03DEB2F3
:1004F000FF3E18BF1E46FBB21EF80330F7B21EF8CF
:10050000077019447E1800E000268318D9B200292C
:1005100018BF591EC9B21EF80110F7B240F2E80424
:100520008F42C2F200047FF42FAF00284BD0411E4F
:10053000032900F0010C01D2002335E0009900F0FE
:100540000C054E1C002300BFD118CAB2FF3A18BFD9
:100550000A46D1B21EF80110F21802F8011C2178E7
:1005600019440131CFB2FF3F18BF0F46F9B21EF850
:100570000110F154217819440231CFB2FF3F18BF66
:100580000F46F9B21EF80110517021781944033159
:10059000CFB2FF3F18BF0F46F9B21EF80110043367
:1005A000917022789D42CFD1BCF1000F0AD0D118B2
:1005B000CAB2FF3A18BF0A46D1B21EF80110009A1B
:1005C000D15422781318D9B2FF3918BF19462170B7
:1005D00001B0BDE8F08F00002DE9F04140F2E807DE
:1005E000C2F200073B787A780C46D11AFF318BB201
:1005F00048F281067343DB0DA3EB0323194489B250
:1006000081F0FF01A1423CBF0020BDE8F081151937
:100610000646FE2D0CD840F2EC00C2F20000104459
:1006200031462246FFF7D0FD20467D70BDE8F081BF
:1006300040F2EC08C2F2000882F0FF0508EB02006D
:1006400031462A46FFF7C0FD7119651B40462A4610
:10065000FFF7BAFD20467D70BDE8F08170470000CD
:10066000EFF3108072B600BFFEE70000014690F87D
:100670002100022816D10868D1E90FC3026822F0D0
:100680000E020260026822F001020260012000FAFC
:1006900003F2CCF8042081F821000020002281F828
:1006A00020207047042088630120002281F8202048
:1006B0007047000080B590F82110022924D102680B
:1006C000116821F00E0111602F211368C4F202019C
:1006D0008A4240F20401C4F2020123F001031360D4
:1006E00016DD3023C4F202039A421DD04423C4F223
:1006F00002039A421CD05823C4F202039A421DD12D
:100700004FF4803322E000BF04218163012080BDCB
:100710000823C4F202039A420ED01C23C4F202033F
:100720009A420BD1102311E04FF480730EE000BF0A
:100730004FF480530AE000BF012307E001F1680C89
:100740004FF08073624508BF4FF480130B600121A6
:1007500080F82110426B002180F820100AB19047E8
:100760000021084680BD00002DE9F04F82B041F223
:100770000042C4F201020E680423904208BF032322
:10078000002E009300F0F68040F2004C4FF6FF7E02
:100790000022C4F2010C0124C1F2100E4FF0000A35
:1007A0004FF0000947E000BF012502F00C040F27BD
:1007B000A7402BEA070705FA04F43C4343F8264018
:1007C000D1F804B040F20C455FEACB23DCF80830E6
:1007D00054BF23EA080343EA0803C4F20105CCF836
:1007E00008302B685FEA8B2454BF23EA080343EAEE
:1007F00008032B605FEA8B34DCF8043054BF23EA33
:10080000080343EA08035FEACB34CCF80430DCF891
:1008100000304FF0010454BF23EA080343EA080301
:10082000CCF800300E680AF1010A36FA0AF302F138
:10083000040200F09F8004FA0AF816EA080FF1D0CB
:100840004B68734512DC122B56D8DFE803F0350BEA
:100850004549555555555555555555555555554D6C
:10086000510000BFD1F80C9046E000BF4FF6FF7575
:10087000C1F22105AB420FDC0025C1F21105AB42EC
:100880001AD00025C1F21205AB4215D00025C1F2E5
:100890002105AB4210D02FE00025C1F22205AB426A
:1008A0000AD00025C1F23105AB4205D00025C1F2C6
:1008B0003205AB4220D100BF8B684BB1012B14BF76
:1008C000C0F81480C0F810804FF0080914E000BF91
:1008D0004FF0040910E000BFCB6803F108090BE0FA
:1008E0004FF0000908E000BFCB6803F1040903E002
:1008F000CB6803F10C0900BF13460546BAF1080F97
:1009000024BF203B04352E680F279F40BE4309FAC1
:1009100003F333432B60CB79DB067FF583AF41F2E2
:100920001804C4F2020423684FEA9A0643F0010354
:100930002360236840F6000403F001030193019B48
:10094000ACF57E7353F826B0C4F20104A0420FD078
:1009500040F60044C4F20104A0423FF425AF41F246
:100960000004C4F20104009DA04208BF02251CE758
:1009700000251AE702B0BDE8F08F0000806808404B
:1009800018BF01207047000040F2D820C2F20000DA
:100990000068704740F2000040F2D821C2F2000027
:1009A000C2F2000100780A68104408607047000035
:1009B00080B542F20000C4F20200016841F010016B
:1009C0000160032000F08AF80F2000F005F800F025
:1009D00027F8002080BD000070B540F20006C2F28A
:1009E000000640F208013278C2F200014FF47A7337
:1009F0000968B3FBF2F20446B1FBF2F1084600F0DD
:100A00005FFB0F2C4FF0010508D838B94FF0FF30CD
:100A100021460022002500F035F87460284670BD9C
:100A200082B041F21800C4F202000168022241F0D3
:100A300001010160016801F0010101910199416822
:100A400041F080514160406800F080500090009873
:100A50000420C4F20100016862F31A61016002B06F
:100A600070470000002848BF704700F01F010122B6
:100A700002FA01F14EF200124009CEF2000242F8F1
:100A80002010704710B54EF60C5CCEF2000CDCF86E
:100A90000030C3F3022E8EF00704042C28BF042478
:100AA000BEF103034FF0FF3E0EFA04F438BF0023FB
:100AB000A14399400EFA03F39A43114300F00F0249
:100AC000043A624409010C3200F16043B0F1FF3F87
:100AD000C8BF03F56442117010BD00004EF60C5102
:100AE000CEF200010A684FF6FF031A4060F30A22B3
:100AF00042F0806040F0FD70086070472DE9F043DF
:100B000081B0002800F0858042F20008C4F202089B
:100B10000446D8F800000D4600F0070088420CD2C9
:100B2000D8F8000020F007002843C8F80000D8F8E3
:100B3000000000F00700A8426BD1206841F20409D0
:100B40008107C4F2020917D5410705D5D9F800106D
:100B500041F4E061C9F80010010705D5D9F800108B
:100B600041F46051C9F80010D9F80010A26821F0D2
:100B7000F0011143C9F80010C00741D1D8F80000B6
:100B800000F00700A8420CD9D8F8000020F00700B8
:100B90002843C8F80000D8F8000000F00700A84279
:100BA00037D12068410707D5D9F80010E26821F451
:100BB000E0611143C9F80010000708D5D9F800001A
:100BC000216920F4605040EAC100C9F80000D9F85A
:100BD000002002F00C00082841F20020C0F27A0048
:100BE00050D142F6FA03C2F38341C0F60003595CC8
:100BF000D2033BD440F60010C0F23D00484341E030
:100C0000606802280AD001282AD159F8041C8903F7
:100C100008D4012001B0BDE8F08300BF59F8041CDE
:100C20008901F6D5D9F8001021F003010843C9F86D
:100C30000000FFF7A9FE064641F28837D9F8000008
:100C4000616800F00C00B0EB810F97D0FFF79CFEBD
:100C5000801BB842F2D9032001B0BDE8F08300BF89
:100C600059F8041C8907D4D5DCE700BFD9F8002067
:100C700042F6F803C2F34042C0F600039A5C4843D0
:100C8000B0FBF2F0D9F8001042F6E002C1F3031114
:100C9000C0F60002515C40F2080220FA01F140F275
:100CA0000400C2F200000068C2F200021160FFF707
:100CB00093FE002001B0BDE8F083000040F2080080
:100CC00041F20401C2F20000C4F2020100680968A6
:100CD00042F6F002C1F30221C0F60002515CC840A6
:100CE0007047000040F2080041F20401C2F2000027
:100CF000C4F202010068096842F6F002C1F3C221A1
:100D0000C0F60002515CC840704700002DE9F04178
:100D100082B0002868D00446007841F20006C0077F
:100D2000C4F2020625D0706800F00C0004281BD025
:100D3000706800F00C00082802D17068C00313D45A
:100D40006068002800F06881B0F5A02F00F07C8179
:100D5000B0F5803F00F07C81306820F48030306056
:100D6000306820F4802076E13068800301D5606827
:100D7000D0B32078800718D5706810F00C0F07D01A
:100D8000706800F00C0008286ED17068C0036BD446
:100D90003068800702D52069012825D13068616953
:100DA00020F0F80040EAC1003060207800071FD42E
:100DB0002078400732D4E56995B1706800F00C00E6
:100DC000082840F08F80012D0ED07068216A00F451
:100DD00080328A4208D1616A00F47010884203D1DF
:100DE000002002B0BDE8F081012002B0BDE8F08132
:100DF000A069002862D00020C4F242200121C0F87E
:100E00008014FFF7C1FD0546706A800700F18C80F1
:100E1000FFF7BAFD401B0228F6D92AE1F06910F06D
:100E2000805808D1F06940F08050F061F06900F01E
:100E300080500090009847F20007C4F2000738681D
:100E4000C00529D4386840F480703860FFF79CFDF5
:100E5000054600BF3868C0051ED4FFF795FD401B4E
:100E60006428F7D905E100BF2069002840F200009E
:100E7000C4F2422000F0828001210160FFF784FD6E
:100E8000054600BF306880073FF588AFFFF77CFD5F
:100E9000401B0228F6D9ECE0E068002800F08080D2
:100EA000052800F09780012800F09880306A20F033
:100EB00001003062306A20F0040092E00020C4F2A9
:100EC00042200021C0F88014FFF75EFD054600BFF8
:100ED000706A80077FF56CAFFFF756FD401B022854
:100EE000F6D9C6E00027C4F2422700203866FFF793
:100EF0004BFD022D05460BD13068800140F1BE80CC
:100F0000FFF742FD401B02284FF00300F4D968E7C9
:100F1000306880017FF564AFFFF736FD401B022883
:100F20004FF00300F4D95CE740F20800C2F2000081
:100F3000006844F6D351C1F26201A0FB0101480AE6
:100F4000019000BF00BF0198411E002801913FF4AD
:100F50002FAF00BF0198411E002801913FF428AF38
:100F600000BF0198411E002801913FF421AF00BF4E
:100F70000198411E00280191E4D119E70021016088
:100F8000FFF702FD054600BF306880077FF50DAF13
:100F9000FFF7FAFC401B02284FF00300F4D920E7CA
:100FA000306A20F001003062306A20F004003062C4
:100FB000FFF7EAFC054641F2883700BF306A800738
:100FC00020D5FFF7E1FC401BB8424FF00300F5D9F4
:100FD00007E700BF306A40F004003062306A40F03A
:100FE00001003062FFF7D0FC054641F2883700BFB0
:100FF000306A800706D4FFF7C7FC401BB842F7D918
:1010000037E000BFB8F1000F7FF4D5AEF06920F0F3
:101010008050F061CFE600BF306820F4803030604F
:10102000306820F480203060FFF7AEFC054600BF3A
:10103000306880037FF59DAEFFF7A6FC401B642857
:101040004FF00300F4D9CCE6306840F480203060E3
:10105000306840F480303060FFF796FC054600BFF2
:10106000306880033FF585AEFFF78EFC401B642897
:10107000F6D9032002B0BDE8F08100BF206AB0F5C8
:10108000803F05D17168A26821F40031114371607D
:101090007168626A21F47411104308437060012082
:1010A0003866FFF771FC0446306880013FF598AE62
:1010B000FFF76AFC001B02284FF00300F4D990E60A
:1010C000411E0020B0EB116F1CBF012070474EF293
:1010D0001002CEF2000251604EF62351CEF2000112
:1010E000F0230B700721906011607047704700007B
:1010F0007047000010B590F83C20012A4FF0020222
:1011000033D080F83D200268D2F804E0D2F808C05D
:101110000C682EF07003234340F2FF74C4F2000405
:10112000A24253600ADCB2F1804F13D040F2004378
:10113000C4F200039A420DD011E000BF42F6004312
:10114000C4F201039A4205D040F60003C4F2000342
:101150009A4204D149682CF080031943916001211F
:10116000002280F83D1080F83C20104610BD0000A1
:10117000002804BF0120704710B5044690F83D00D8
:1011800028B9002084F83C00204600F06FF80220C7
:1011900084F83D00206840F2FF730268C4F2000347
:1011A00042F6004C9842C4F2010C15DCB0F1804FBD
:1011B0001AD040F20041C4F20001884214D0984293
:1011C00018DCB0F1804F1DD040F20041C4F20001A4
:1011D000884217D01AE000BF604505D040F60001F4
:1011E000C4F200018842EAD1A16822F070020A43E9
:1011F0009842E6DD604505D040F60001C4F20001EA
:10120000884203D1216922F440720A43A36922F083
:101210008001D4F804E0E268194360450160C262CD
:10122000C0F828E002D16169CCF830100121416199
:101230000269D20703D0026922F001020261002094
:1012400084F8461084F83E1084F83F1084F840106B
:1012500084F8411084F8421084F8431084F8441054
:1012600084F8451084F83D1010BD000080B582B0B0
:10127000006840F20041C4F20001884212D0B0F18F
:10128000804F0CD141F21C00C4F20200016841F011
:1012900001010160006800F001000190019802B0B6
:1012A00080BD00BF41F21C00C4F2020001680022B0
:1012B00041F0020101600068002100F0020000908E
:1012C00000981D20FFF7DEFB1D2002B0BDE8804026
:1012D000FFF7C8BB90F83D1001291CBF01207047E3
:1012E000022180F83D10006840F2FF72C168C4F22C
:1012F0000002904241F00101C16009DCB0F1804F71
:1013000012D040F20041C4F2000188420CD012E039
:1013100042F60041C4F20101884205D040F60001C6
:10132000C4F20001884206D1816801F00701062954
:1013300004BF00207047016841F0010101600020F6
:101340007047000080B590F83C20012A4FF002025F
:1013500000F0C28080F83D20D0F800C04FF67772D0
:10136000DCF8083023EA0202CCF808200B684F2B87
:1013700028DC1F2B44DD202B45D0302B43D0402BC5
:1013800040F0AC80D1F804E0C968DCF82030DCF82B
:10139000202022F00102CCF82020DCF8182022F0D6
:1013A000F00242EA011123F00A0242EA0E02CCF8EE
:1013B0001810CCF82020DCF8081041F0470121F08B
:1013C000300180E06F2B27DDB3F5005F48D0B3F527
:1013D000805F7AD0702B40F08180D1E901E3C96849
:1013E000DCF8082043EA0E0322F47F4243EA01219D
:1013F0001143CCF80810DCF8081041F0770162E0E6
:101400000BB1102B6AD1DCF8081021F070011943E0
:1014100041F0070157E000BF502B35D0602B5DD164
:10142000D1F804E0C968DCF82030DCF8202022F094
:101430001002CCF82020DCF8182022F4704242EA96
:10144000013123F0A00242EA0E12CCF81810CCF8B9
:101450002020DCF8081041F0670121F0100132E093
:10146000D1E901E3C968DCF8082043EA0E0322F45D
:101470007F4243EA01211143CCF80810DCF8081040
:1014800041F480411FE000BFD1F804E0C968DCF8F6
:101490002030DCF8202022F00102CCF82020DCF8FB
:1014A000182022F0F00242EA011123F00A0242EA77
:1014B0000E02CCF81810CCF82020DCF8081041F00F
:1014C000570121F02001CCF808100022012180F8FA
:1014D0003D10002180F83C10104680BD0122F5E748
:1014E0007047000070B504460068C5680669B1071A
:1014F00016D515F0020113D06FF002010161012130
:1015000021778069800703D02046FFF7E9FF05E0D7
:10151000204600F08FF8204600F010FA00202077D7
:10152000700719D515F0040016D020686FF004017B
:10153000016102212177806910F4407F04D02046A8
:10154000FFF7CEFF06E000BF204600F073F820460C
:1015500000F0F4F900202077300717D515F00800C7
:1015600014D020686FF00801016104212177C0695F
:10157000800703D02046FFF7B3FF05E0204600F0C8
:1015800059F8204600F0DAF900202077F00619D546
:1015900015F0100016D020686FF0100101610821CD
:1015A0002177C06910F4407F04D02046FFF798FFF0
:1015B00006E000BF204600F03DF8204600F0BEF9EE
:1015C00000202077F00718BF15F0010002D1300687
:1015D00009D412E020686FF001010161204600F09B
:1015E0001FFA300609D515F0800006D020686FF08C
:1015F000800101612046FFF779FD700609D515F0DD
:10160000400006D020686FF040010161204600F0E4
:1016100025FAB00658BF70BD15F0200008D021682B
:101620006FF0200220460A61BDE87040FFF760BD00
:1016300070BD0000704700002DE9F04390F83C3089
:10164000012B04BF0220BDE8F0834FEAB202032A57
:101650003CD8DFE802F003437FB900BF036842F6DD
:1016600000461D6A1A6AC4F2010622F001021A62DB
:101670001A465C6852F818CFB3428E68D1F800E081
:1016800025F0020545EA06050CD1CE68D1E90578BA
:1016900024F4407425F00C0526F004063C43354341
:1016A00044EA08042CF0730747EA0E075C609F6168
:1016B0004F6809695F631D629F6947F008079F6172
:1016C0009F6927F004079F61AEE000BF012100225F
:1016D00080F83C200846BDE8F08300BF036842F66E
:1016E00000461D6A1A6AC4F2010622F010021A624C
:1016F0001A46D3F804C052F8184FB3428E68D1F896
:1017000000E025F0200545EA06150FD1CE68D1E9A5
:1017100005986FF0400707EA06162CF4406725F09D
:10172000C00547EA8907354347EA880C24F4E644B4
:1017300044EA0E27C3F804C09F614F6809699F639C
:101740001D629F6947F400679F619F6927F4806766
:101750009F6168E0036842F600461D6A1A6AC4F297
:10176000010622F480721A621A46D3F804C052F8B5
:101770001CEFB3428E680C6825F4007545EA062517
:101780000FD1CE68D1E90598360240F2FF47BE433B
:101790002CF4405725F4406547EA0917354347EADA
:1017A000081C2EF073072743C3F804C0DF614F689D
:1017B0000969DF631D62DF6947F00807DF61DF69E0
:1017C00027F00407DF612FE0036842F60047D3F8F3
:1017D00020C01A6AC4F2010722F480521A621A4623
:1017E0005C6852F81C5FD1F800E08E68BB4204D1FF
:1017F0004F6924F4804444EA87142CF4005747EAE4
:10180000063725F4E64646EA0E265C60DE614E6841
:1018100009691E641F62DF6947F40067DF61DF69E1
:1018200027F48067DF610902136819431160002102
:10183000002280F83C200846BDE8F083002804BF61
:101840000120704710B5044690F83D0028B90020EB
:1018500084F83C00204600F06FF8022084F83D0038
:10186000206840F2FF730268C4F2000342F6004CA5
:101870009842C4F2010C15DCB0F1804F1AD040F24E
:101880000041C4F20001884214D0984218DCB0F143
:10189000804F1DD040F20041C4F20001884217D0B1
:1018A0001AE000BF604505D040F60001C4F2000117
:1018B0008842EAD1A16822F070020A439842E6DD2C
:1018C000604505D040F60001C4F20001884203D112
:1018D000216922F440720A43A36922F08001D4F8FE
:1018E00004E0E268194360450160C262C0F828E084
:1018F00002D16169CCF83010012141610269D2073F
:1019000003D0026922F001020261002084F846102F
:1019100084F83E1084F83F1084F8401084F8411099
:1019200084F8421084F8431084F8441084F8451079
:1019300084F83D1010BD00007047000070470000A3
:1019400041B1082910D0042914BF00F1410200F16F
:101950003F020BE090F83E20012A1CBF0120704797
:10196000022280F83E2013E000F140021278012AA2
:101970001CBF012070470222082907D0042914BF88
:1019800080F8412080F83F2002E000BF80F840202E
:10199000006801F01F010122036A8A4023EA020164
:1019A0000162036A42F64441C4F201011A43A1F103
:1019B0004403984202620FD040F2FF71C4F200016A
:1019C000884213DCB0F1804F1CD040F20041C4F2D9
:1019D0000001884216D01CE00A6842F400420A6006
:1019E00040F2FF71C4F200018842EBDD42F6004193
:1019F000C4F20101884205D040F60001C4F20001A2
:101A0000884206D1816801F00701062904BF002041
:101A10007047016841F0010101600020704700003B
:101A200040F23421C2F20001884218BF704710B55D
:101A300040F2C424C2F2000440F60041C4F20101A5
:101A40002046012200F046FD024640F27C20C2F210
:101A500000002146BDE8104000F0FABB70470000CE
:101A600081B090F84230202B08D100294FF00103BB
:101A700018BF002A06D1184601B070470223184645
:101A800001B0704701230363002343638162222175
:101A90008285C285436480F84210026901681AB1E8
:101AA000CA6842F48072CA604A6942F001024A611F
:101AB000CA6842F02002CA60026B012A38D10023B2
:101AC00000930A6800924A680092009A51E8031F46
:101AD000D0F800C041F010014CE80312002ACAD02F
:101AE000016851E8031F026841F0100142E8031346
:101AF00013B3016851E8031F026841F0100142E886
:101B00000313CBB1016851E8031F026841F01001D3
:101B100042E8031383B1016851E8031F026841F0F2
:101B2000100142E80313002B4FF00003D8D1A2E7C5
:101B30000123184601B070470023184601B07047D2
:101B400040F27C22C2F20002904218BF704710B5EA
:101B500040F27000C2F2000000F11404C9B2204645
:101B6000FEF73AFD40F27C20C2F2000021466422DA
:101B7000BDE81040FFF774BF70470000B0B582B0F9
:101B8000044600680168C368426901F02F05202DF2
:101B900003F0200506D12DB1204602B0BDE8B040CB
:101BA00000F0BCBC5FEA017C1EBF02F0010E03F432
:101BB000907212EB0E0255D1226B012A05D111F061
:101BC000100218BF13F0100236D10A0622D513F006
:101BD00080021FD094F84110212941D1A168B1F5AC
:101BE000805F03D12169002900F07282216A4A1CBA
:101BF000226209784160E18C01390A04E1842FD125
:101C0000C16821F08001C160C16841F04001C1603C
:101C100002B0B0BD490623D513F0400120D0C16801
:101C200021F04001C1602021204684F8411002B01B
:101C3000BDE8B04000F028BB00210191016801918E
:101C40004168019101994169490600F18F80A18D98
:101C5000E28DE38D002B1CBF891A5FEA01420CD193
:101C600002B0B0BDCA0718BF13F4807240F03881CB
:101C70004A0700F13B8140E1206850E8030F2268E9
:101C800020F4907042E80303DBB1206850E8030FB2
:101C9000226820F4907042E8030393B1206850E872
:101CA000030F226820F4907042E803034BB12068D0
:101CB00050E8030F226820F4907042E80303002BE1
:101CC000DAD1206850E8050F226820F0010042E8D0
:101CD0000503DBB1206850E8050F226820F0010001
:101CE00042E8050393B1206850E8050F226820F010
:101CF000010042E805034BB1206850E8050F226857
:101D000020F0010042E80503002BDAD1202084F8FE
:101D1000420000202063206850E8030F226820F072
:101D2000100042E80303DBB1206850E8030F22688B
:101D300020F0100042E8030393B1206850E8030F3D
:101D4000226820F0100042E803034BB1206850E8FD
:101D5000030F226820F0100042E80303002BDAD1C1
:101D6000022289B220466263B4E000BFE16B0A68D8
:101D7000526893B2002B3FF473AFA58DAB42BFF412
:101D80006FAFE2858969202900F09D8050E8030F3C
:101D9000216820F4807041E80302EAB1206850E82D
:101DA000030F216820F4807041E80302A2B120688B
:101DB00050E8030F216820F4807041E803025AB113
:101DC000206850E8030F216820F4807041E8030286
:101DD00012B12068DAE700BF206850E8050F2168DB
:101DE00020F0010041E80502DAB1206850E8050F53
:101DF000216820F0010041E8050292B1206850E816
:101E0000050F216820F0010041E805024AB1206871
:101E100050E8050F216820F0010041E80502002A82
:101E2000DAD1206850E8050F216820F0400041E831
:101E30000502DAB1206850E8050F216820F0400063
:101E400041E8050292B1206850E8050F216820F0B2
:101E5000400041E805024AB1206850E8050F2168BA
:101E600020F0400041E80502002ADAD1202084F861
:101E7000420000202063206850E8030F216820F012
:101E8000100041E80302DAB1206850E8030F21682E
:101E900020F0100041E8030292B1206850E8030FDF
:101EA000216820F0100041E803024AB1206850E8A0
:101EB000030F216820F0100041E80302002ADAD164
:101EC000E06BFEF7D3FB02206063A08DE18D401A2A
:101ED00081B2204602B0BDE8B040FFF731BE00BF7E
:101EE000626C42F0010262644A0706D5BEF1000F3F
:101EF00003D0626C42F0020262648A0706D5BEF12A
:101F0000000F03D0626C42F004026264BCF1000F67
:101F100006D555EA0E0203D0626C42F008026264F4
:101F2000626C002A3FF49CAE11F0200118BF002D16
:101F300003D0204600F0F2FA20684169626C01F09B
:101F4000400102F00802891800F0A28050E8030F57
:101F5000216820F4907041E80302C2B3206850E881
:101F6000030F216820F4907041E803027AB32068DF
:101F700050E8030F216820F4907041E8030232B367
:101F8000206850E8030F216820F4907041E80302B4
:101F9000EAB12068DAE700BF206850E8050F216841
:101FA00020F0010041E80502DAB1206850E8050F91
:101FB000216820F0010041E8050292B1206850E854
:101FC000050F216820F0010041E805024AB12068B0
:101FD00050E8050F216820F0010041E80502002AC1
:101FE000DAD1206B012824D1206850E8030F216842
:101FF00020F0100041E80302DAB1206850E8030F36
:10200000216820F0100041E8030292B1206850E8F6
:10201000030F216820F0100041E803024AB1206854
:1020200050E8030F216820F0100041E80302002A65
:10203000DAD1202084F84200002020632068416922
:1020400049063FD550E8050F216820F0400041E8DF
:1020500005022AB3206850E8050F216820F04000EF
:1020600041E80502E2B1206850E8050F216820F040
:10207000400041E805029AB1206850E8050F216848
:1020800020F0400041E8050252B12068DAE700BFC5
:102090002046FFF771FD0020606402B0B0BD00BFB4
:1020A000E06B78B142F21151C0F600014163FEF7D6
:1020B00001FB00283FF4D4ADE06B416B02B0BDE8FA
:1020C000B0400847204602B0BDE8B040FFF754BD1D
:1020D000216A31F8022B6FF35F22426021628AE5A8
:1020E000002804BF0120704710B5044690F8410055
:1020F00028B9002084F84000204600F061F8242030
:1021000084F841002068D4E90212C36823F4005324
:10211000C360036923F440531A430261D4E90423E2
:102120001143C268194341F20C639A431143C160E1
:102130004169A26921F44071114343F60002C4F2DF
:1021400001029042416103D0FEF7B8FD02E000BFFA
:10215000FEF7C8FD6268192148439100B0FBF1F019
:1021600048F21F51C5F2EB11A0FB01235A096FF091
:10217000630302FB0300322303EB0010A0FB010109
:10218000F02303EA5113206803EB0212C1F3431159
:1021900011448160016921F490410161416921F09C
:1021A0002A014161C16841F40051C1600020202131
:1021B000606484F8411084F84210606310BD000030
:1021C00070B586B040F60004C4F20104006804F55E
:1021D000405100268842049602D006B070BD00BF70
:1021E00041F21800C4F20200016802AD41F48041DE
:1021F0000160016801F4804101910199016841F099
:10220000040101600068294600F004000190019873
:102210004FF40070029002200390032005902046A6
:10222000FEF7A2FA4FF48060CDE902062046294667
:102230000496FEF799FA252000210022FEF722FCE1
:102240002520FEF70FFC06B070BD000070470000AF
:10225000034690F8410020281CBF02207047002947
:102260004FF0010018BF002A00D17047196200200A
:1022700021219A84DA84586483F841101968CA6865
:1022800042F08002CA60704770470000FEE700001D
:1022900040F2EC10C2F200000021FFF751BB000039
:1022A00040F2EC11C2F200010968632828BF6320E4
:1022B0004863704780B586B0002041F21801059050
:1022C000C4F202010A6842F020020A600A6802F0C1
:1022D00020020192019A0A6842F004020A600A6828
:1022E00002F004020192019A0A6842F008020A60B0
:1022F000096801F00801019101990121CDE902105D
:10230000049040F60040C4F2010002A9FEF72CFA46
:1023100006B080BD10B594B040F2EC100021C2F2BE
:1023200000004FF0804241F61F4363240E91CDE937
:102330000C110991CDE90711CDE90511CDE9031182
:10234000CDE90111C0E90023C0E9021401618161F6
:10235000FEF70EFF002818BFFEF782F94FF48050F9
:102360000B9040F2EC10C2F200000BA9FEF7EAFF5E
:10237000002818BFFEF774F940F2EC10C2F200001A
:10238000FFF75CFA002818BFFEF76AF940F2EC107C
:102390000024C2F2000008A9CDE90844FEF7AAFE15
:1023A000002818BFFEF75CF96020CDE90104039412
:1023B000059440F2EC14C2F2000401A92046002268
:1023C000FFF73AF9002818BFFEF74AF92068002104
:1023D000B0F1804F129101D014B010BD41F218003D
:1023E000C4F20200016841F004010160006810A914
:1023F00000F004000F900F9801201090022011901F
:10240000139040F60000C4F20100FEF7ADF914B0DD
:1024100010BD000080B586B040F2342040F200428A
:102420000021C2F20000C4F2000241F61F4340F254
:10243000CF7C0591CDE90311CDE90011C0E900235E
:10244000C0E9021C01618161FEF792FE002818BFFD
:10245000FEF706F94FF48050029040F23420C2F2A9
:10246000000002A9FEF76EFF002818BFFEF7F8F87B
:1024700040F23420C2F200006946FEF73BFE00281D
:1024800018BFFEF7EDF806B080BD000080B540F241
:102490007C2043F60001C2F20000C4F201010023D7
:1024A0004FF00C0C4FF4E13280E80E00C0E903332A
:1024B000C0E905C3C361FFF713FE002808BF80BD54
:1024C000BDE88040FEF7CCB8FEE70000FEE7000064
:1024D0007047000010B5044608461146FEF74EFA54
:1024E0004AF25A512180E1782279A07008441044C0
:1024F000411E0620617110BD70470000FEF74ABA08
:102500007047000040F23420C2F20000FEF7EABF3C
:10251000406A0021C185C184FFF72EBB81B090F8CD
:102520004210222920D18368B3F5805F08D1016968
:10253000002965D000F128010A6803685B680AE099
:10254000014651F8282F13B90369002BF5D0036811
:102550005B6803F07F0313700A6801320A60C18D63
:1025600001390A04C18501D001B070470168CA6809
:1025700022F02002CA60CA6822F48072CA604A69E6
:1025800022F001024A61202280F8422000224263A8
:10259000036B012B3ED1026351E8031F026821F057
:1025A000100142E803130168DBB151E8031F026820
:1025B00021F0100142E80313016893B151E8031FB1
:1025C000026821F0100142E8031301684BB151E8A1
:1025D000031F026821F0100142E803130168002B79
:1025E000DAD10A68D20606D5002200920A68009263
:1025F000496800910099818D01B0FFF7A1BA00BF31
:102600000168826A49686FF35F2122F8021B8262C7
:10261000A5E700BF01B0FFF719BE000040F27C2023
:10262000C2F20000FFF7AABAFEE7000090B0FEF782
:10263000BFF900240120CDE90B44CDE909440690FF
:102640000A904FF4E0104FF4803102250F9006A855
:10265000CDE90714CDE90D51FEF758FB20B1EFF39A
:10266000108072B6FEE700BF0F20CDE901054FF4E0
:102670008060CDE9040401A802210394FEF73EFA2C
:1026800020B1EFF3108072B6FEE700BFFFF712FE35
:10269000FFF740FEFFF7FAFEFFF7BCFEFFF7F8FD7D
:1026A00040F23420C2F20000FEF714FE40F2700443
:1026B000C2F2000440F27C2004F11401C2F20000D6
:1026C0006422FFF7CDF90025C4F2C82504E000BF5D
:1026D0000020FFF7E5FD00BF2046FDF72BFEA078A8
:1026E00002280BD00128F7D1E0780028F0D001288B
:1026F000F2D16420FFF7D4FDEEE700BFD4F8030069
:10270000294600F021F800F003F8FFF7C9FDE3E7E0
:1027100041000B0ED3F19E0208D950F400034FEA9A
:10272000032323FA02F048BF4042704710B500F07F
:102730008CF800BF49922480002070476FF000425F
:1027400082EA2000704700004FF47F0C1CEAD01290
:102750001EBF1CEAD11392EA0C0F93EA0C0F00F093
:10276000478090EA010F48BF42F480724FF0004C5E
:102770004CEA00204CEA012102EB0302A0FB01130A
:10278000A2F50002002918BF43F001035B0028BF37
:102790004FEA330342EB22425FEA132C4CEBC25068
:1027A0002EBFBCEB436FB2F57C0F70474FEA036C52
:1027B000BCF1004F08BF20F00100B2F57C0F38BF1C
:1027C00070470BD582F0FF0212F5803FC8BF7047FB
:1027D00000F1C040D8BF00F00040704700F5000C89
:1027E0005FEA4C0C48BF7047B0F1C04000F073B8CE
:1027F0000CEAD11390EA010F48BF42F4807262459F
:1028000038BF634504D280EA010000F00040704701
:1028100010B500F01AF800BF8900013E00F007B8BB
:1028200000F009B85FEA410C5FEA1C6C08D080EA4E
:10283000010000F050B85FEA400C5FEA1C6CF6D172
:102840004FF00040A0F5800070470EF1020E2EF010
:10285000030E5EF8044B244204D44FEA4102B2F165
:102860007F4F11D84FEA4003B3F17F4F0CD80ED100
:102870004FEAD07C0CEB4C0C0CF1020CB2F17F4F08
:1028800008BF4CEBD17C04E04FF0080C01E04FEAAC
:10289000D17C0CEB4C0324FA03F404F00704B4F1EC
:1028A000040C06D20EEB840CBDE810404CF0010C79
:1028B0006047DFE80CF0070802024FF00040A0F587
:1028C000800010BD0846420018BFD2F1807288BF58
:1028D00000F0004010BDFF2141EAD050C005704714
:1028E00000000000000000000102030406070809C0
:1028F00000000000010203040102020304050607B0
:1029000008090A0B0C0D0E0F1010000030290008EA
:1029100000000020100000002801000840290008E5
:1029200010000020D0080000440100080000000052
:10293000010000001000000000127A0000000000FA
:04000005080000ED02
:00000001FF
